S01700004763634170706C69636174696F6E312E737265635B
S11300000C946A000C9487000C9487000C9487006D
S11300100C9487000C9487000C9487000C94870040
S11300200C9487000C9487000C9487000C94870030
S11300300C9487000C9487000C9487000C94870020
S11300400C9487000C9487000C9487000C94870010
S11300500C9487002F014001510162017301840156
S11300609501A601B701C901DA01EB01FC010D02FA
S11300701E022F02400251026202730284029502A0
S1130080A602B702BC02CD02DE02EF020003110396
S113009022033303610367036D03730379037F034F
S11300A085038B03910397039D03A303A903AF0364
S11300B0B503BB03C103C703CD03D303D903DF03D4
S11300C0E503EB03F103F703FD03030409040F0441
S11300D015041B0411241FBECFE5D8E0DEBFCDBF3D
S11300E010E0A0E6B0E0E4E7F9E002C005900D926C
S11300F0A23BB107D9F720E0A2EBB0E001C01D920A
S1130100A33BB207E1F70E9489000C94B8040C9455
S11301100000CF93DF93CDB7DEB7E8970FB6F8941E
S1130120DEBF0FBECDBF0E940F010E9422040E94B9
S11301301D0180E1E0E6F0E0DE01119601900D92F0
S11301408A95E1F781E1E1E7F0E0DE015196019063
S11301500D928A95E1F78EE0E3E8F0E0DE019296F5
S113016001900D928A95E1F78FE49BE499AB88ABFB
S11301708DE08AAB6FEFCE01C3960E94800462E9E2
S113018070E0CE01C3960E94AF04892B71F480E025
S11301900E94130181E00E94180182E00E9418016C
S11301A0CE0101960E945904E5CF69E970E0CE01C1
S11301B0C3960E94AF04892B71F480E00E94180159
S11301C081E00E94130182E00E941801CE01419651
S11301D00E945904CFCF6FE970E0CE01C3960E940C
S11301E0AF04892B71F480E00E94180181E00E9421
S11301F0180182E00E941301CE0182960E945904E4
S1130200B9CF65EA70E0CE01C3960E94AF04892B92
S113021009F0B0CFCE01C0960E945904ABCF0E9422
S11302201D0181E0089561E00E944C0381E008957E
S113023060E00E944C0381E00895CF93DF93C9EA04
S1130240D0E042EB50E0E8818E2F90E080329105BF
S113025008F019C2FC01E65DFF4F0C94A9048981E2
S1130260813011F4D09A0FC281110DC28A8181307C
S113027019F4D098D89A07C2811105C2D09803C244
S11302808981813011F4D19AFEC18111FCC18A8126
S1130290813019F4D198D99AF6C18111F4C1D19859
S11302A0F2C18981813011F4D29AEDC18111EBC17F
S11302B08A81813019F4D298DA9AE5C18111E3C1B7
S11302C0D298E1C18981813011F4D39ADCC18111C2
S11302D0DAC18A81813019F4D398DB9AD4C18111AF
S11302E0D2C1D398D0C18981813011F4D49ACBC1C1
S11302F08111C9C18A81813019F4D498DC9AC3C1AF
S11303008111C1C1D498BFC18981813011F4D59ABA
S1130310BAC18111B8C18A81813019F4D598DD9AA6
S1130320B2C18111B0C1D598AEC18981813011F4B7
S1130330D69AA9C18111A7C18A81813019F4D698AE
S1130340DE9AA1C181119FC1D6989DC18981813056
S113035011F4D79A98C1811196C18A81813019F418
S1130360D798DF9A90C181118EC1D7988CC18981A9
S1130370813019F487B387BB86C1811184C18A8116
S1130380813019F4B898C09A7EC181117CC1B898A3
S11303907AC18981813011F4B99A75C1811173C10F
S11303A08A81813019F4B998C19A6DC181116BC1E8
S11303B0B99869C18981813011F4BA9A64C18111F3
S11303C062C18A81813019F4BA98C29A5CC18111E0
S11303D05AC1BA9858C18981813011F4BB9A53C16A
S11303E0811151C18A81813019F4BB98C39A4BC1E0
S11303F0811149C1BB9847C18981813011F4BC9AEC
S113040042C1811140C18A81813019F4BC98C49AD7
S11304103AC1811138C1BC9836C18981813011F447
S1130420BD9A31C181112FC18A81813019F4BD98DF
S1130430C59A29C1811127C1BD9825C189818130FF
S113044011F4BE9A20C181111EC18A81813019F430
S1130450BE98C69A18C1811116C1BE9814C189816B
S1130460813011F4BF9A0FC181110DC18A8181308D
S113047019F4BF98C79A07C1811105C1BF9803C178
S11304808981813011F4A09AFEC08111FCC08A8157
S1130490813019F4A098A89AF6C08111F4C0A098EC
S11304A0F2C08981813011F4A19AEDC08111EBC0B1
S11304B08A81813019F4A198A99AE5C08111E3C019
S11304C0A198E1C08981813011F4A29ADCC0811124
S11304D0DAC08A81813019F4A298AA9AD4C0811111
S11304E0D2C0A298D0C08981813011F4A39ACBC024
S11304F08111C9C08A81813019F4A398AB9AC3C011
S11305008111C1C0A398BFC08981813011F4A49A1C
S1130510BAC08111B8C08A81813019F4A498AC9A08
S1130520B2C08111B0C0A498AEC08981813011F4E9
S1130530A59AA9C08111A7C08A81813019F4A59810
S1130540AD9AA1C081119FC0A5989DC089818130B9
S113055011F4A69A98C0811196C08A81813019F449
S1130560A698AE9A90C081118EC0A6988CC089813D
S1130570811189C0A79A87C08981813011F4889A32
S113058082C0811180C08A81813019F48898909A40
S11305907AC0811178C0889876C08981813011F43D
S11305A0899A71C081116FC08A81813019F4899848
S11305B0919A69C0811167C0899865C08981813029
S11305C011F48A9A60C081115EC08A81813019F465
S11305D08A98929A58C0811156C08A9854C08981C9
S11305E0813011F48B9A4FC081114DC08A818130C2
S11305F019F48B98939A47C0811145C08B9843C0D6
S11306008981813011F48C9A3EC081113CC08A8169
S1130610813019F48C98949A36C0811134C08C9826
S113062032C08981813011F48D9A2DC081112BC083
S11306308A81813019F48D98959A25C0811123C03F
S11306408D9821C08981813011F48E9A1CC081114A
S11306501AC08A81813019F48E98969A14C0811137
S113066012C08E9810C08981813011F48F9A0BC00A
S1130670811109C08A81813019F48F98979A03C037
S1130680811101C08F982396C417D50709F0DBCDDB
S113069081E0DF91CF91089590E0FC01EE0FFF1F00
S11306A08E0F9F1FFC01E755FF4FE0818E2F90E0D6
S11306B08032910508F0C4C0FC01E65BFF4F0C9446
S11306C0A904613011F4D89ABBC0D898B9C061307C
S11306D011F4D99AB5C0D998B3C0613011F4DA9A3B
S11306E0AFC0DA98ADC0613011F4DB9AA9C0DB98D1
S11306F0A7C0613011F4DC9AA3C0DC98A1C06130BA
S113070011F4DD9A9DC0DD989BC0613011F4DE9A2E
S113071097C0DE9895C0613011F4DF9A91C0DF98DC
S11307208FC0613011F4C09A8BC0C09889C0613009
S113073011F4C19A85C0C19883C0613011F4C29A82
S11307407FC0C2987DC0613011F4C39A79C0C39848
S113075077C0613011F4C49A73C0C49871C0613019
S113076011F4C59A6DC0C5986BC0613011F4C69A76
S113077067C0C69865C0613011F4C79A61C0C79854
S11307805FC0613011F4A89A5BC0A89859C0613069
S113079011F4A99A55C0A99853C0613011F4AA9ACA
S11307A04FC0AA984DC0613011F4AB9A49C0AB98C0
S11307B047C0613011F4AC9A43C0AC9841C0613079
S11307C011F4AD9A3DC0AD983BC0613011F4AE9ABE
S11307D037C0AE9835C0613011F4AF9A31C0AF98CC
S11307E02FC0613011F4909A2BC0909829C06130C9
S11307F011F4919A25C0919823C0613011F4929A12
S11308001FC092981DC0613011F4939A19C0939837
S113081017C0613011F4949A13C0949811C06130D8
S113082011F4959A0DC095980BC0613011F4969A05
S113083007C0969805C0613011F4979A01C0979843
S113084081E0089510BC83E389B988E18AB980B551
S1130850846080BD80B5826080BD80B58F7D80BDA1
S113086080B58F7E80BD80B5877F80BD81E0809319
S1130870B2000895982F8091B200882341F081E05E
S11308808093B2005D9BFECF9CB98091B200089525
S1130890FC018091B200882359F081E08093B2007A
S11308A05F9BFECF2CB130E0318320838091B20076
S11308B00895EF92FF920F931F93CF93DF937C01E0
S11308C08091B2008823A9F081E08093B200E7010F
S11308D08FEFE80EF11C8E01899190E00E943A049A
S11308E0F80190819D3019F0CE15DF05A1F78091B4
S11308F0B200DF91CF911F910F91FF90EF90089577
S11309000F931F93CF93DF938C018091B2008823C0
S1130910D9F081E08093B2006623A1F0C801E80118
S11309206150062F10E00F5F1F4F080F191FCE01F3
S11309300E94480499919D3029F09A3019F0C0170B
S1130940D107A9F78091B200DF91CF911F910F9148
S11309500895EE0FFF1F0590F491E02D0994FB011B
S1130960DC018D91019080190110D9F3990B089540
S1070970F894FFCF25
S1130974477265656E204C4544206973206F6E0D83
S11309840059656C6C6F77204C4544206973206F63
S11309946E0D00526564204C4544206973206F6ECB
S11309A40D0053544152540D00574149540D005302
S11309B4544F500D0041540D000001000101000288
S10509C401002C
S9030000FC
